:1000000071C000008EC000008CC000008AC00000DB
:1000100088C0000086C0000084C0000082C00000CC
:1000200080C00000C6C000007CC000007AC0000094
:1000300078C0000076C0000074C0000072C00000EC
:1000400070C000006EC000006CC000006AC00000FC
:1000500069C0000066C0000064C0000062C000000B
:1000600060C000005EC000005CC000005AC000001C
:1000700058C0000056C0000054C0000052C000002C
:1000800050C000004EC000004CC000004AC000003C
:1000900048C0000046C0000044C0000042C000004C
:1000A00040C000003EC000003CC000003AC000005C
:1000B00038C0000036C0000034C0000032C000006C
:1000C00030C000002EC000002CC000002AC000007C
:1000D00028C0000026C0000024C0000022C000008C
:1000E00020C0000011241FBECFEFD1E2DEBFCDBF84
:1000F00000E00CBF12E0A0E0B2E0EEE3F7E000E0C9
:100100000BBF02C007900D92A630B107D9F722E0CD
:10011000A6E0B2E001C01D92A830B207E1F727D1F6
:100120000CC36ECF1F920F920FB60F9211240BB615
:100130000F922F933F934F935F936F937F938F9380
:100140009F93AF93BF93CF93EF93FF93C091070219
:100150006C2F70E080E090E001D224E13EEA43E2BF
:1001600051E460D2CDD1C53680F480910602882357
:1001700019F0813031F009C06093880070938900D4
:1001800004C060938A0070938B00FF91EF91CF9130
:10019000BF91AF919F918F917F916F915F914F919F
:1001A0003F912F910F900BBE0F900FBE0F901F909D
:1001B00018951F920F920FB60F9211240BB60F9243
:1001C0002F933F934F935F936F937F938F939F935F
:1001D000AF93BF93CF93EF93FF93E0910002F09121
:1001E0000102808180FD0AC080910702843630F4CC
:1001F000809107028F5F80930702A5C0808181FDF7
:100200000AC080910702882331F080910702815053
:100210008093070298C0808182FD95C010920702EA
:10022000C09107026C2F70E080E090E097D124E14C
:100230003EEA43E251E4F6D163D1C53680F48091C1
:100240000602882319F0813031F009C060938800DC
:100250007093890004C060938A0070938B00C091F2
:1002600007026C2F70E080E090E078D124E13EEA54
:1002700043E251E4D7D144D1C53680F480910602DF
:10028000882319F0813031F009C0609388007093A1
:10029000890004C060938A0070938B002FEF89EF70
:1002A00090E0215080409040E1F700C000001092A3
:1002B00084001092850010928000109281001092AC
:1002C0006F009091060281E0911180E08093060218
:1002D000C09107026C2F70E080E090E03FD124E1F4
:1002E0003EEA43E251E49ED10BD1C53680F48091C1
:1002F0000602882319F0813031F009C0609388002C
:100300007093890004C060938A0070938B001092F0
:1003100084001092850080910602882311F080E20B
:1003200001C080E8A0E8B0E08C93E1E8F0E08081D3
:10033000836080838C9183608C93808188608083CC
:1003400081E080936F00FF91EF91CF91BF91AF91CA
:100350009F918F917F916F915F914F913F912F91DD
:100360000F900BBE0F900FBE0F901F901895E0914D
:100370000202F0910302808188678083E091040289
:10038000F09105028081876080838AB18FEF8AB9FE
:1003900081E08093680087E080936B00C091070242
:1003A0006C2F70E080E090E0D9D024E13EEA43E297
:1003B00051E438D1A5D0C53680F480910602882357
:1003C00019F0813031F009C0609388007093890082
:1003D00004C060938A0070938B0010928400109286
:1003E000850080910602882311F080E201C080E838
:1003F000A0E8B0E08C93E1E8F0E080818360808346
:100400008C9183608C9380818860808381E080936D
:100410006F0080910602882311F088E001C080E11E
:10042000E0910402F09105029081892B80837894F9
:10043000B0E6A1E050E070EA4DEC60ECD0E1C8E03D
:10044000BBB9209107028BB19A2F243609F0952F62
:10045000892B8BB92FEF89EF90E02150804090409D
:10046000E1F700C000007BB980910702843650F4A8
:1004700080910702489FC0011124892F8695869597
:10048000869501C0852F9BB1892B8BB92FEF89EF02
:1004900090E0215080409040E1F700C000006BB92F
:1004A000909107022BB1949F812D112486958695FA
:1004B0008695880F382F330F330F830F981B922B9D
:1004C0009BB92FEF89EF90E0215080409040E1F7F9
:1004D00000C00000E0910402F0910502808187765F
:1004E000808380910602882311F08C2F01C08D2F0C
:1004F000E0910402F09105029081892B8083A0CFC6
:1005000070D088F09F5790F0B92F9927B751A0F07D
:10051000D1F0660F771F881F991F1AF0BA95C9F797
:1005200012C0B13081F077D0B1E0089574C0672F68
:10053000782F8827B85F39F0B93FCCF38695779547
:100540006795B395D9F73EF4909580957095619530
:100550007F4F8F4F9F4F0895E89409C097FB3EF45B
:1005600090958095709561957F4F8F4F9F4F992300
:10057000A9F0F92F96E9BB279395F695879577957E
:100580006795B795F111F8CFFAF4BB0F11F460FF3E
:100590001BC06F5F7F4F8F4F9F4F16C0882311F096
:1005A00096E911C0772321F09EE8872F762F05C0AA
:1005B000662371F096E8862F70E060E02AF09A9545
:1005C000660F771F881FDAF7880F9695879597F93A
:1005D000089557FD9058440F551F59F05F3F71F033
:1005E0004795880F97FB991F61F09F3F79F087959A
:1005F0000895121613061406551FF2CF4695F1DF23
:1006000008C0161617061806991FF1CF86957105B2
:10061000610508940895E894BB2766277727CB01E6
:1006200097F908950BD078C069D028F06ED018F0F3
:10063000952309F05AC05FC01124EECFCADFA0F3A2
:10064000959FD1F3950F50E0551F629FF001729F67
:10065000BB27F00DB11D639FAA27F00DB11DAA1F86
:10066000649F6627B00DA11D661F829F2227B00DD3
:10067000A11D621F739FB00DA11D621F839FA00D5E
:10068000611D221F749F3327A00D611D231F849FAE
:10069000600D211D822F762F6A2F11249F57504005
:1006A0008AF0E1F088234AF0EE0FFF1FBB1F661FA0
:1006B000771F881F91505040A9F79E3F510570F059
:1006C00014C0AACF5F3FECF3983EDCF38695779594
:1006D0006795B795F795E7959F5FC1F7FE2B880F54
:1006E000911D9695879597F9089597F99F6780E8EA
:1006F00070E060E008959FEF80EC089500240A9474
:100700001616170618060906089500240A941216EC
:100710001306140605060895092E0394000C11F41F
:10072000882352F0BB0F40F4BF2B11F460FF04C0CC
:0E0730006F5F7F4F8F4F9F4F0895F894FFCF5C
:06073E0023002400250049
:00000001FF
